{
  "contractName": "Goalify",
  "abi": [
    {
      "inputs": [],
      "payable": true,
      "stateMutability": "payable",
      "type": "constructor"
    },
    {
      "constant": true,
      "inputs": [],
      "name": "admin",
      "outputs": [
        {
          "internalType": "address",
          "name": "",
          "type": "address"
        }
      ],
      "payable": false,
      "stateMutability": "view",
      "type": "function"
    },
    {
      "constant": true,
      "inputs": [],
      "name": "goalId",
      "outputs": [
        {
          "internalType": "uint8",
          "name": "",
          "type": "uint8"
        }
      ],
      "payable": false,
      "stateMutability": "view",
      "type": "function"
    },
    {
      "constant": true,
      "inputs": [
        {
          "internalType": "uint8",
          "name": "",
          "type": "uint8"
        }
      ],
      "name": "goals",
      "outputs": [
        {
          "internalType": "uint8",
          "name": "id",
          "type": "uint8"
        },
        {
          "internalType": "uint256",
          "name": "betSize",
          "type": "uint256"
        },
        {
          "internalType": "uint256",
          "name": "pot",
          "type": "uint256"
        },
        {
          "internalType": "uint256",
          "name": "start",
          "type": "uint256"
        },
        {
          "internalType": "uint256",
          "name": "duration",
          "type": "uint256"
        },
        {
          "internalType": "uint256",
          "name": "end",
          "type": "uint256"
        },
        {
          "internalType": "string",
          "name": "goalStatement",
          "type": "string"
        },
        {
          "internalType": "address payable",
          "name": "staker",
          "type": "address"
        },
        {
          "internalType": "address payable",
          "name": "sponsor",
          "type": "address"
        },
        {
          "internalType": "address payable",
          "name": "judge",
          "type": "address"
        },
        {
          "internalType": "enum Goalify.State",
          "name": "state",
          "type": "uint8"
        },
        {
          "internalType": "enum Goalify.Outcome",
          "name": "outcome",
          "type": "uint8"
        },
        {
          "internalType": "uint8",
          "name": "tries",
          "type": "uint8"
        },
        {
          "internalType": "uint256",
          "name": "sponsorBetBalance",
          "type": "uint256"
        }
      ],
      "payable": false,
      "stateMutability": "view",
      "type": "function"
    },
    {
      "constant": false,
      "inputs": [],
      "name": "toggleCircuitBreaker",
      "outputs": [],
      "payable": false,
      "stateMutability": "nonpayable",
      "type": "function"
    },
    {
      "constant": false,
      "inputs": [
        {
          "internalType": "string",
          "name": "_statement",
          "type": "string"
        },
        {
          "internalType": "uint256",
          "name": "_betSize",
          "type": "uint256"
        },
        {
          "internalType": "uint256",
          "name": "_duration",
          "type": "uint256"
        }
      ],
      "name": "createGoal",
      "outputs": [],
      "payable": true,
      "stateMutability": "payable",
      "type": "function"
    },
    {
      "constant": false,
      "inputs": [],
      "name": "setSponsor",
      "outputs": [],
      "payable": false,
      "stateMutability": "nonpayable",
      "type": "function"
    },
    {
      "constant": false,
      "inputs": [],
      "name": "setJudge",
      "outputs": [],
      "payable": false,
      "stateMutability": "nonpayable",
      "type": "function"
    },
    {
      "constant": false,
      "inputs": [
        {
          "internalType": "uint8",
          "name": "_goalId",
          "type": "uint8"
        }
      ],
      "name": "bet",
      "outputs": [],
      "payable": true,
      "stateMutability": "payable",
      "type": "function"
    },
    {
      "constant": false,
      "inputs": [
        {
          "internalType": "uint8",
          "name": "_goalId",
          "type": "uint8"
        },
        {
          "internalType": "uint80",
          "name": "decision",
          "type": "uint80"
        }
      ],
      "name": "approve",
      "outputs": [
        {
          "internalType": "bool",
          "name": "",
          "type": "bool"
        }
      ],
      "payable": false,
      "stateMutability": "nonpayable",
      "type": "function"
    },
    {
      "constant": false,
      "inputs": [
        {
          "internalType": "uint8",
          "name": "_goalId",
          "type": "uint8"
        }
      ],
      "name": "distribute",
      "outputs": [],
      "payable": false,
      "stateMutability": "nonpayable",
      "type": "function"
    },
    {
      "constant": true,
      "inputs": [
        {
          "internalType": "uint8",
          "name": "_goalId",
          "type": "uint8"
        }
      ],
      "name": "viewPot",
      "outputs": [
        {
          "internalType": "uint256",
          "name": "",
          "type": "uint256"
        }
      ],
      "payable": false,
      "stateMutability": "view",
      "type": "function"
    }
  ],
  "bytecode": "0x60806040526000600160146101000a81548160ff021916908315150217905550600560008190555033600160006101000a81548173ffffffffffffffffffffffffffffffffffffffff021916908373ffffffffffffffffffffffffffffffffffffffff160217905550612050806100776000396000f3fe60806040526004361061009c5760003560e01c8063b7d5c41d11610064578063b7d5c41d146101df578063d0821b0e1461024b578063d5eb63cc1461027c578063e197d86f14610293578063f851a44014610451578063fb878cdc146104a85761009c565b806304f70214146100a1578063113d2278146100d257806339d37fab1461015f5780633e1fe4dc146101b15780634c26284d146101c8575b600080fd5b3480156100ad57600080fd5b506100b66104e6565b604051808260ff1660ff16815260200191505060405180910390f35b61015d600480360360608110156100e857600080fd5b810190808035906020019064010000000081111561010557600080fd5b82018360208201111561011757600080fd5b8035906020019184600183028401116401000000008311171561013957600080fd5b909192939192939080359060200190929190803590602001909291905050506104f9565b005b34801561016b57600080fd5b5061019b6004803603602081101561018257600080fd5b81019080803560ff169060200190929190505050610649565b6040518082815260200191505060405180910390f35b3480156101bd57600080fd5b506101c6610694565b005b3480156101d457600080fd5b506101dd61083e565b005b3480156101eb57600080fd5b506102316004803603604081101561020257600080fd5b81019080803560ff169060200190929190803569ffffffffffffffffffff1690602001909291905050506109e8565b604051808215151515815260200191505060405180910390f35b61027a6004803603602081101561026157600080fd5b81019080803560ff169060200190929190505050610d79565b005b34801561028857600080fd5b50610291611456565b005b34801561029f57600080fd5b506102cf600480360360208110156102b657600080fd5b81019080803560ff1690602001909291905050506114dc565b604051808f60ff1660ff1681526020018e81526020018d81526020018c81526020018b81526020018a8152602001806020018973ffffffffffffffffffffffffffffffffffffffff1673ffffffffffffffffffffffffffffffffffffffff1681526020018873ffffffffffffffffffffffffffffffffffffffff1673ffffffffffffffffffffffffffffffffffffffff1681526020018773ffffffffffffffffffffffffffffffffffffffff1673ffffffffffffffffffffffffffffffffffffffff1681526020018660038111156103a357fe5b60ff1681526020018560018111156103b757fe5b60ff1681526020018460ff1660ff16815260200183815260200182810382528a818151815260200191508051906020019080838360005b838110156104095780820151818401526020810190506103ee565b50505050905090810190601f1680156104365780820380516001836020036101000a031916815260200191505b509f5050505050505050505050505050505060405180910390f35b34801561045d57600080fd5b50610466611674565b604051808273ffffffffffffffffffffffffffffffffffffffff1673ffffffffffffffffffffffffffffffffffffffff16815260200191505060405180910390f35b3480156104b457600080fd5b506104e4600480360360208110156104cb57600080fd5b81019080803560ff16906020019092919050505061169a565b005b600360009054906101000a900460ff1681565b60001515600160149054906101000a900460ff1615151461051957600080fd5b6078811015610573576040517f08c379a0000000000000000000000000000000000000000000000000000000008152600401808060200182810382526026815260200180611e246026913960400191505060405180910390fd5b600060026000600360009054906101000a900460ff1660ff1660ff168152602001908152602001600020905084848260060191906105b2929190611cba565b508281600101819055508181600401819055504281600301819055508142018160050181905550338160070160006101000a81548173ffffffffffffffffffffffffffffffffffffffff021916908373ffffffffffffffffffffffffffffffffffffffff16021790555060008160090160146101000a81548160ff0219169083600381111561063d57fe5b02179055505050505050565b6000801515600160149054906101000a900460ff1615151461066a57600080fd5b6000600260008460ff1660ff16815260200190815260200160002090508060020154915050919050565b60001515600160149054906101000a900460ff161515146106b457600080fd5b600060026000600360009054906101000a900460ff1660ff1660ff1681526020019081526020016000209050601e6106f9826003015442611b2a90919063ffffffff16565b1061074f576040517f08c379a000000000000000000000000000000000000000000000000000000000815260040180806020018281038252603f815260200180611da8603f913960400191505060405180910390fd5b8060070160009054906101000a900473ffffffffffffffffffffffffffffffffffffffff1673ffffffffffffffffffffffffffffffffffffffff163373ffffffffffffffffffffffffffffffffffffffff1614156107f8576040517f08c379a0000000000000000000000000000000000000000000000000000000008152600401808060200182810382526023815260200180611ff96023913960400191505060405180910390fd5b338160090160006101000a81548173ffffffffffffffffffffffffffffffffffffffff021916908373ffffffffffffffffffffffffffffffffffffffff16021790555050565b60001515600160149054906101000a900460ff1615151461085e57600080fd5b600060026000600360009054906101000a900460ff1660ff1660ff1681526020019081526020016000209050601e6108a3826003015442611b2a90919063ffffffff16565b106108f9576040517f08c379a0000000000000000000000000000000000000000000000000000000008152600401808060200182810382526041815260200180611ed66041913960600191505060405180910390fd5b8060070160009054906101000a900473ffffffffffffffffffffffffffffffffffffffff1673ffffffffffffffffffffffffffffffffffffffff163373ffffffffffffffffffffffffffffffffffffffff1614156109a2576040517f08c379a0000000000000000000000000000000000000000000000000000000008152600401808060200182810382526025815260200180611fa26025913960400191505060405180910390fd5b338160080160006101000a81548173ffffffffffffffffffffffffffffffffffffffff021916908373ffffffffffffffffffffffffffffffffffffffff16021790555050565b6000801515600160149054906101000a900460ff16151514610a0957600080fd5b6000600260008560ff1660ff16815260200190815260200160002090508060040154610a42826003015442611b2a90919063ffffffff16565b11610a98576040517f08c379a0000000000000000000000000000000000000000000000000000000008152600401808060200182810382526027815260200180611f176027913960400191505060405180910390fd5b8060090160009054906101000a900473ffffffffffffffffffffffffffffffffffffffff1673ffffffffffffffffffffffffffffffffffffffff163373ffffffffffffffffffffffffffffffffffffffff1614610b5d576040517f08c379a00000000000000000000000000000000000000000000000000000000081526004018080602001828103825260168152602001807f6f6e6c79206a756467652063616e20617070726f76650000000000000000000081525060200191505060405180910390fd5b60018369ffffffffffffffffffff161480610b84575060028369ffffffffffffffffffff16145b610bd9576040517f08c379a0000000000000000000000000000000000000000000000000000000008152600401808060200182810382526032815260200180611fc76032913960400191505060405180910390fd5b60016003811115610be657fe5b8160090160149054906101000a900460ff166003811115610c0357fe5b14610c76576040517f08c379a00000000000000000000000000000000000000000000000000000000081526004018080602001828103825260188152602001807f7374617465206d75737420626520696e2042455454494e47000000000000000081525060200191505060405180910390fd5b60018369ffffffffffffffffffff161415610cd85760008160090160156101000a81548160ff02191690836001811115610cac57fe5b021790555060028160090160146101000a81548160ff02191690836003811115610cd257fe5b02179055505b60028369ffffffffffffffffffff161415610d6e5760018160090160156101000a81548160ff02191690836001811115610d0e57fe5b021790555060028160090160146101000a81548160ff02191690836003811115610d3457fe5b021790555080600901601681819054906101000a900460ff168092919060010191906101000a81548160ff021916908360ff160217905550505b600191505092915050565b80610da1600260008360ff1660ff16815260200190815260200160002060010154600a611b74565b600260008360ff1660ff1681526020019081526020016000206002015410610e31576040517f08c379a00000000000000000000000000000000000000000000000000000000081526004018080602001828103825260208152602001807f63616e6e6f7420626574206d6f7265207468616e203130782062657453697a6581525060200191505060405180910390fd5b8160001515600160149054906101000a900460ff16151514610e5257600080fd5b6000600260008560ff1660ff16815260200190815260200160002090506079610e88826003015442611b2a90919063ffffffff16565b10610ede576040517f08c379a0000000000000000000000000000000000000000000000000000000008152600401808060200182810382526033815260200180611e4a6033913960400191505060405180910390fd5b8060070160009054906101000a900473ffffffffffffffffffffffffffffffffffffffff1673ffffffffffffffffffffffffffffffffffffffff163373ffffffffffffffffffffffffffffffffffffffff161480610f8b57508060080160009054906101000a900473ffffffffffffffffffffffffffffffffffffffff1673ffffffffffffffffffffffffffffffffffffffff163373ffffffffffffffffffffffffffffffffffffffff16145b610ffd576040517f08c379a000000000000000000000000000000000000000000000000000000000815260040180806020018281038252601f8152602001807f6f6e6c79207374616b657220616e642073706f6e736f722063616e206265740081525060200191505060405180910390fd5b806001015434101561105a576040517f08c379a0000000000000000000000000000000000000000000000000000000008152600401808060200182810382526043815260200180611f5f6043913960600191505060405180910390fd5b6000600381111561106757fe5b8160090160149054906101000a900460ff16600381111561108457fe5b14806110b757506001600381111561109857fe5b8160090160149054906101000a900460ff1660038111156110b557fe5b145b61110c576040517f08c379a0000000000000000000000000000000000000000000000000000000008152600401808060200182810382526023815260200180611eb36023913960400191505060405180910390fd5b8060080160009054906101000a900473ffffffffffffffffffffffffffffffffffffffff1673ffffffffffffffffffffffffffffffffffffffff163373ffffffffffffffffffffffffffffffffffffffff161415611177573481600a01600082825401925050819055505b34816002016000828254019250508190555060018160090160146101000a81548160ff021916908360038111156111aa57fe5b021790555062015180816003015401421180156111cb575060008160020154145b15611339573373ffffffffffffffffffffffffffffffffffffffff166108fc349081150290604051600060405180830381858888f19350505050158015611216573d6000803e3d6000fd5b50600260008560ff1660ff168152602001908152602001600020600080820160006101000a81549060ff02191690556001820160009055600282016000905560038201600090556004820160009055600582016000905560068201600061127d9190611d3a565b6007820160006101000a81549073ffffffffffffffffffffffffffffffffffffffff02191690556008820160006101000a81549073ffffffffffffffffffffffffffffffffffffffff02191690556009820160006101000a81549073ffffffffffffffffffffffffffffffffffffffff02191690556009820160146101000a81549060ff02191690556009820160156101000a81549060ff02191690556009820160166101000a81549060ff0219169055600a82016000905550505b506000600260008360ff1660ff16815260200190815260200160002090506113668160010154600a611b74565b816002015411156114505760006113828260010154600a611b74565b82600201540390508082600201600082825403925050819055508160080160009054906101000a900473ffffffffffffffffffffffffffffffffffffffff1673ffffffffffffffffffffffffffffffffffffffff163373ffffffffffffffffffffffffffffffffffffffff161415611407578082600a01600082825403925050819055505b3373ffffffffffffffffffffffffffffffffffffffff166108fc829081150290604051600060405180830381858888f1935050505015801561144d573d6000803e3d6000fd5b50505b50505050565b3373ffffffffffffffffffffffffffffffffffffffff16600160009054906101000a900473ffffffffffffffffffffffffffffffffffffffff1673ffffffffffffffffffffffffffffffffffffffff16146114b057600080fd5b600160149054906101000a900460ff1615600160146101000a81548160ff021916908315150217905550565b60026020528060005260406000206000915090508060000160009054906101000a900460ff1690806001015490806002015490806003015490806004015490806005015490806006018054600181600116156101000203166002900480601f0160208091040260200160405190810160405280929190818152602001828054600181600116156101000203166002900480156115b95780601f1061158e576101008083540402835291602001916115b9565b820191906000526020600020905b81548152906001019060200180831161159c57829003601f168201915b5050505050908060070160009054906101000a900473ffffffffffffffffffffffffffffffffffffffff16908060080160009054906101000a900473ffffffffffffffffffffffffffffffffffffffff16908060090160009054906101000a900473ffffffffffffffffffffffffffffffffffffffff16908060090160149054906101000a900460ff16908060090160159054906101000a900460ff16908060090160169054906101000a900460ff169080600a015490508e565b600160009054906101000a900473ffffffffffffffffffffffffffffffffffffffff1681565b60001515600160149054906101000a900460ff161515146116ba57600080fd5b6000600260008360ff1660ff1681526020019081526020016000209050600060018111156116e457fe5b8160090160159054906101000a900460ff16600181111561170157fe5b1480611733575060018081111561171457fe5b8160090160159054906101000a900460ff16600181111561173157fe5b145b611788576040517f08c379a0000000000000000000000000000000000000000000000000000000008152600401808060200182810382526036815260200180611e7d6036913960400191505060405180910390fd5b6002600381111561179557fe5b8160090160149054906101000a900460ff1660038111156117b257fe5b14611825576040517f08c379a00000000000000000000000000000000000000000000000000000000081526004018080602001828103825260198152602001807f7374617465206d75737420626520696e20415050524f5645440000000000000081525060200191505060405180910390fd5b8060070160009054906101000a900473ffffffffffffffffffffffffffffffffffffffff1673ffffffffffffffffffffffffffffffffffffffff163373ffffffffffffffffffffffffffffffffffffffff1614806118d257508060080160009054906101000a900473ffffffffffffffffffffffffffffffffffffffff1673ffffffffffffffffffffffffffffffffffffffff163373ffffffffffffffffffffffffffffffffffffffff16145b8061192c57508060090160009054906101000a900473ffffffffffffffffffffffffffffffffffffffff1673ffffffffffffffffffffffffffffffffffffffff163373ffffffffffffffffffffffffffffffffffffffff16145b611981576040517f08c379a000000000000000000000000000000000000000000000000000000000815260040180806020018281038252603d815260200180611de7603d913960400191505060405180910390fd5b6000600181111561198e57fe5b8160090160159054906101000a900460ff1660018111156119ab57fe5b1415611a3b5760008160020154905060008260020181905550600082600a01819055508160070160009054906101000a900473ffffffffffffffffffffffffffffffffffffffff1673ffffffffffffffffffffffffffffffffffffffff166108fc829081150290604051600060405180830381858888f19350505050158015611a38573d6000803e3d6000fd5b50505b600180811115611a4757fe5b8160090160159054906101000a900460ff166001811115611a6457fe5b1415611b0057600081600a0154905081600a01548260020160008282540392505081905550600082600a01819055508160080160009054906101000a900473ffffffffffffffffffffffffffffffffffffffff1673ffffffffffffffffffffffffffffffffffffffff166108fc829081150290604051600060405180830381858888f19350505050158015611afd573d6000803e3d6000fd5b50505b60038160090160146101000a81548160ff02191690836003811115611b2157fe5b02179055505050565b6000611b6c83836040518060400160405280601e81526020017f536166654d6174683a207375627472616374696f6e206f766572666c6f770000815250611bfa565b905092915050565b600080831415611b875760009050611bf4565b6000828402905082848281611b9857fe5b0414611bef576040517f08c379a0000000000000000000000000000000000000000000000000000000008152600401808060200182810382526021815260200180611f3e6021913960400191505060405180910390fd5b809150505b92915050565b6000838311158290611ca7576040517f08c379a00000000000000000000000000000000000000000000000000000000081526004018080602001828103825283818151815260200191508051906020019080838360005b83811015611c6c578082015181840152602081019050611c51565b50505050905090810190601f168015611c995780820380516001836020036101000a031916815260200191505b509250505060405180910390fd5b5060008385039050809150509392505050565b828054600181600116156101000203166002900490600052602060002090601f016020900481019282601f10611cfb57803560ff1916838001178555611d29565b82800160010185558215611d29579182015b82811115611d28578235825591602001919060010190611d0d565b5b509050611d369190611d82565b5090565b50805460018160011615610100020316600290046000825580601f10611d605750611d7f565b601f016020900490600052602060002090810190611d7e9190611d82565b5b50565b611da491905b80821115611da0576000816000905550600101611d88565b5090565b9056fe796f75206d7573742073657420796f7572206a756467652077697468696e203330207365636f6e647320616674657220676f616c20697320637265617465647374616b65722c206a756467652c2073706f6e736f722063616e2064697374726962757465202f20636c61696d207265776172642028696620616e7929476f616c206d757374206265206174206c6561737420313230207365636f6e6473206c6f6e67796f757220313230207365636f6e647320666f722062657474696e67206f6e20796f757220676f616c2068617320656e6465646a75646765206d757374206861766520676976656e20617070726f76616c20666f72205355434345455353206f72204641494c5552457374617465206d75737420626520696e2043524541544544206f722042455454494e47796f75206d7573742073657420796f75722073706f6e736f722077697468696e203330207365636f6e647320616674657220676f616c20697320637265617465646d757374207761697420756e74696c20676f616c206475726174696f6e2068617320656e646564536166654d6174683a206d756c7469706c69636174696f6e206f766572666c6f777374616b657220616e642073706f6e736f72206d7573742062657420616d6f756e742067726561746572207468616e206f7220657175616c20746f2062657453697a6573706f6e736f72206d75737420626520646966666572656e742066726f6d207374616b65726465636973696f6e20697320656974686572203120666f72205355434345455353206f72203220666f72204641494c5552456a75646765206d75737420626520646966666572656e742066726f6d207374616b6572a265627a7a72315820accdf4044a608122d5b89aafcdfddcaad7ed23a1047cced5fd8246590dc7b5a664736f6c63430005100032",
  "source": "// SPDX-License-Identifier: MIT\r\npragma solidity >=0.4.21 <0.8.0;\r\n\r\nimport \"./SafeMath.sol\";\r\nimport \"./Ownable.sol\";\r\n\r\n    /// @author Li Sun\r\n    /// @title the Dapp that allows you to bet on yourself to achieve your own goals.\r\n\r\n    /*** \r\n    The game is very simple:\r\n    - You, the staker, will have a goal you intend to achieve. \r\n    - You will use the app to 1) input your goal, 2) declare a minimum amount to bet on yourself, and 3) set a duration of how long you will give yourself to achieve this goal. \r\n    - You and your sponsor will bet. After duration passes, the judge will arbitrate the outcome (success for failure)\r\n    - If you achieved your goal during this period of time, you will get your staked Eth back in full and also win the sponsor's bet. \r\n    - But if you fail, you will lose your staked bet. \r\n    */\r\n\r\n\r\ncontract Goalify {\r\n    using SafeMath for uint256;\r\n    \r\n    ///@notice This enum is used to toggle contract state.\r\n    enum State {CREATED, BETTING, APPROVED, CLOSED}\r\n\r\n    ///@notice This enum is used to dictate outcome which can either be 1) successful (goal achieved) or 2) failed (goal failed). Useful for Judge to approve / arbitrate goal's outcome\r\n    enum Outcome {SUCCEESS, FAILURE}\r\n\r\n    uint dappFee; // This is fee that players will need to pay to the Dapp. For simplicity purposes, this fee will not be used.\r\n    address public admin; // Setting admin / owner \r\n    \r\n    bool isStopped = false; // This variable is specifically created for the Circuit Breaker design pattery. Bool must be false in order for contract to work.\r\n    \r\n    //Struct \r\n    struct Goal {\r\n        uint8 id;\r\n        uint256 betSize;\r\n        uint256 pot;\r\n        uint256 start;\r\n        uint256 duration;\r\n        uint256 end;\r\n        string goalStatement;\r\n        address payable staker;\r\n        address payable sponsor;\r\n        address payable judge;\r\n        State state;\r\n        Outcome outcome;\r\n        uint8 tries;\r\n        uint256 sponsorBetBalance;\r\n    }\r\n    \r\n    mapping(uint8 => Goal) public goals; // Mapping to keep track goals set. For simplicity, this contract will only have 1 goal.\r\n    uint8 public goalId; //  Label for each goal set. defualt will be \"0\", so first goal set wiill be ID \"0\". For simplicity, this contract will only have 1 goal\r\n    \r\n    constructor() payable public {\r\n        // require(fee > 0 && fee < 100, \"fee is a percentage that should be between 1% to 99%\");\r\n        dappFee = 5; // Dapp will take 5% of the pot, which is the sum of both stake and sponsor's bet. For simplicity purposes, this contract will not include the Dapp fee.\r\n        admin = msg.sender;\r\n    }\r\n    \r\n    /// @notice This is a function that if called will toggle the circuit breaker and halt entire contract from progressing. Only admin can call this function.\r\n    function toggleCircuitBreaker() external onlyAdmin() {\r\n        isStopped = !isStopped;\r\n    }\r\n\r\n    ///@notice This is where the staker creates the goal\r\n    ///@param _statement The name and description of the goal\r\n    ///@param _betSize The minimum size bet\r\n    ///@param _duration The lengthn of time allowed for the goal to complete. For simplicity and demonstration purposes, duration should be in minutes.\r\n    function createGoal(string calldata _statement, uint256 _betSize, uint256 _duration) external payable contractIsActive() {\r\n        require(_duration >= 120, \"Goal must be at least 120 seconds long\");\r\n        Goal storage goal = goals[goalId];\r\n        goal.goalStatement = _statement;\r\n        goal.betSize = _betSize;\r\n        goal.duration = _duration;\r\n        goal.start = now;\r\n        goal.end = now + _duration;\r\n\r\n        goal.staker = msg.sender;\r\n        goal.state = State.CREATED;\r\n    }\r\n\r\n    ///@notice There is a 30 seconds window for sponsor to set himself as sponsor\r\n    function setSponsor() external contractIsActive() {\r\n        Goal storage goal = goals[goalId];\r\n        require((now.sub(goal.start)) < 30, 'you must set your sponsor within 30 seconds after goal is created');\r\n        require(msg.sender != goal.staker, 'sponsor must be different from staker');\r\n        goal.sponsor = msg.sender;\r\n    }\r\n\r\n    ///@notice There is a 30 seconds window for judge to set himself as judge\r\n    function setJudge() external contractIsActive() {\r\n        Goal storage goal = goals[goalId];\r\n        require((now.sub(goal.start)) < 30, 'you must set your judge within 30 seconds after goal is created');\r\n        require(msg.sender != goal.staker, 'judge must be different from staker');\r\n        goal.judge = msg.sender;\r\n    }\r\n    \r\n    ///@notice There 120 second windown to bet. Betters must be staker or sponsor. Each bet must be > than betSize. Contract State can be in both CREATED and BETTING.\r\n    ///@param _goalId This is the lable of the goal in the mapping \"goals\". This should always be \"0\", as we will only have 1 goal set.\r\n    ///@notice If total betting amount exceeds the max pot (10x minimum betSize), then excess will be refunded and no more bet is allowed (reflected through two modifers).\r\n    function bet(uint8 _goalId) external payable capBet(_goalId) refundExcess(_goalId) contractIsActive() {\r\n        Goal storage goal = goals[_goalId];\r\n        require((now.sub(goal.start)) < 121, 'your 120 seconds for betting on your goal has ended'); \r\n        require(msg.sender == goal.staker || msg.sender == goal.sponsor, \"only staker and sponsor can bet\");\r\n        require(msg.value >= goal.betSize, \"staker and sponsor must bet amount greater than or equal to betSize\");\r\n        require(goal.state == State.CREATED || goal.state == State.BETTING, \"state must be in CREATED or BETTING\");\r\n        \r\n        // Specifically used to track staker's bet balance. If goal results in \"failure\", then only staker will get refunded\r\n        if(msg.sender == goal.sponsor) {goal.sponsorBetBalance += msg.value;}\r\n        \r\n        goal.pot += msg.value;\r\n        goal.state = State.BETTING;\r\n        \r\n        // Staker and sponsor must bet within 24 hours of goal creation, otherwise goal will self delete and bets will be refunded. This mechanism is similiar to Auto Deprecation, goals are deleted if no one bets after 24 hours.\r\n        if(now > (goal.start + 86400) && goal.pot == 0) {\r\n            msg.sender.transfer(msg.value); //caller get refund back\r\n            delete goals[_goalId];\r\n        } \r\n    }\r\n    \r\n    ///@notice Function can only be called if goal's entire duration has passed. Only judge can approve / call this function. Decsion is binary (success or fail). State must be at Betting for this function to be called.\r\n    ///@param decision This is a binary decision the judge must make. \"1\" is success and \"2\" is failure\r\n    ///@return The decision has been made if true.\r\n    function approve(uint8 _goalId, uint80 decision) external contractIsActive() returns(bool){\r\n        Goal storage goal = goals[_goalId];\r\n        require((now.sub(goal.start)) > goal.duration, \"must wait until goal duration has ended\");\r\n        require(msg.sender == goal.judge, \"only judge can approve\");\r\n        require(decision == 1 || decision == 2, 'decision is either 1 for SUCCEESS or 2 for FAILURE');\r\n        require(goal.state == State.BETTING, \"state must be in BETTING\");\r\n        \r\n        // Staker wins his deposit + sponsor deposit. Actualy withdraw of funding reward to staker is contructected in seperate \"distribute\" function (Withdraw Pattern / Pull Over Push Payment Design Pattern)\r\n        if(decision == 1) {\r\n            goal.outcome = Outcome.SUCCEESS; \r\n            goal.state = State.APPROVED;\r\n        }\r\n\r\n        // Sponsor get his money back. This failed try will be journalized, and State now changes to Approved.\r\n        // For simplicity of this project, staker will lose his entire stake if failed on first try. In future verisions of Goalify, I will code in a feature where stakers will have 2 more tries to win his/her money back.\r\n        // Actual withdraw of refund to sponsor is contructected in a seperate \"distribute\" function (Withdraw Pattern / Pull Over Push Payment Design Pattern) \r\n        if(decision == 2) {\r\n            goal.outcome = Outcome.FAILURE; \r\n            goal.state = State.APPROVED;\r\n            goal.tries++; \r\n        }\r\n        \r\n        return true;\r\n    }\r\n    \r\n    ///@notice This is the seperate withdraw function (\"Pull over Push\" Design Pattern). All internal accounting work is finalized before calling the external \"transfer\" function.\r\n    function distribute(uint8 _goalId) external contractIsActive() {\r\n        Goal storage goal = goals[_goalId];\r\n        require(goal.outcome == Outcome.SUCCEESS || goal.outcome == Outcome.FAILURE, \"judge must have given approval for SUCCEESS or FAILURE\");\r\n        require(goal.state == State.APPROVED, \"state must be in APPROVED\");\r\n        require(msg.sender == goal.staker || msg.sender == goal.sponsor || msg.sender == goal.judge, \"staker, judge, sponsor can distribute / claim reward (if any)\");\r\n        \r\n        if(goal.outcome == Outcome.SUCCEESS) {\r\n            uint256 amountWon = goal.pot; // For simplicity purposes, contract will not charge fees and reward staker the entire pot, in future versions, Goalify will take 5% fee calculated: goal.pot * (100 - dappFee) / 100);\r\n            goal.pot = 0;\r\n            goal.sponsorBetBalance = 0;\r\n            goal.staker.transfer(amountWon); // Contract will withdraw staker's original deposit + sponsor's deposit \r\n        } \r\n        \r\n        if(goal.outcome == Outcome.FAILURE) {\r\n            uint256 amountRefund = goal.sponsorBetBalance;\r\n            goal.pot -= goal.sponsorBetBalance;\r\n            goal.sponsorBetBalance = 0;\r\n            goal.sponsor.transfer(amountRefund);\r\n        } //contract will withdraw sponsor's deposit back to the sponsor\r\n        \r\n        goal.state = State.CLOSED;\r\n    }\r\n\r\n    ///@return The balance of the pot. This is a view function.\r\n    function viewPot(uint8 _goalId) public view contractIsActive() returns(uint256) {\r\n        Goal storage goal = goals[_goalId];\r\n        return goal.pot;\r\n    }\r\n\r\n    //modifers\r\n\r\n    ///@notice If total betting amount exceeds the max pot (10x minimum betSize), then the excess from overbettting will be refunded back to msg.sender.\r\n    modifier refundExcess(uint8 _goalId) {\r\n        _;\r\n        Goal storage goal = goals[_goalId];\r\n        if(goal.pot > (SafeMath.mul(goal.betSize, 10))) { /***Note, using SafeMath here in case betSize is set to be huge number */\r\n        uint256 refund = (goal.pot - (SafeMath.mul(goal.betSize, 10)));\r\n        goal.pot -= refund;\r\n        if(msg.sender == goal.sponsor) {goal.sponsorBetBalance -= refund;}\r\n        msg.sender.transfer(refund);\r\n        }\r\n    }\r\n\r\n    ///@notice If max pot is reached, no more bet is allowed\r\n    modifier capBet(uint8 _goalId) {\r\n        require(goals[_goalId].pot < (SafeMath.mul(goals[_goalId].betSize, 10)), \"cannot bet more than 10x betSize\"); /***Note, using SafeMath here in case betSize is set to be huge number */\r\n        _;\r\n    }\r\n    \r\n    modifier contractIsActive() {\r\n        require(isStopped == false);\r\n        _;\r\n    }\r\n\r\n    modifier onlyAdmin() {\r\n        require(admin == msg.sender);\r\n        _;\r\n    }\r\n\r\n}",
  "sourcePath": "C:/Users/admin/Documents/GitHub/Goalify---Consensys-Bootcamp-Final-Project/contracts/Goalify.sol",
  "compiler": {
    "name": "solc",
    "version": "0.5.16+commit.9c3226ce.Emscripten.clang"
  },
  "schemaVersion": "3.2.3",
  "updatedAt": "2020-12-09T22:17:52.466Z",
  "networkType": "ethereum",
  "devdoc": {
    "methods": {
      "approve(uint8,uint80)": {
        "params": {
          "decision": "This is a binary decision the judge must make. \"1\" is success and \"2\" is failure"
        },
        "return": "The decision has been made if true."
      },
      "bet(uint8)": {
        "params": {
          "_goalId": "This is the lable of the goal in the mapping \"goals\". This should always be \"0\", as we will only have 1 goal set."
        }
      },
      "createGoal(string,uint256,uint256)": {
        "params": {
          "_betSize": "The minimum size bet",
          "_duration": "The lengthn of time allowed for the goal to complete. For simplicity and demonstration purposes, duration should be in minutes.",
          "_statement": "The name and description of the goal"
        }
      },
      "viewPot(uint8)": {
        "return": "The balance of the pot. This is a view function."
      }
    }
  },
  "userdoc": {
    "methods": {
      "approve(uint8,uint80)": {
        "notice": "Function can only be called if goal's entire duration has passed. Only judge can approve / call this function. Decsion is binary (success or fail). State must be at Betting for this function to be called."
      },
      "bet(uint8)": {
        "notice": "There 120 second windown to bet. Betters must be staker or sponsor. Each bet must be > than betSize. Contract State can be in both CREATED and BETTING.If total betting amount exceeds the max pot (10x minimum betSize), then excess will be refunded and no more bet is allowed (reflected through two modifers)."
      },
      "createGoal(string,uint256,uint256)": {
        "notice": "This is where the staker creates the goal"
      },
      "distribute(uint8)": {
        "notice": "This is the seperate withdraw function (\"Pull over Push\" Design Pattern). All internal accounting work is finalized before calling the external \"transfer\" function."
      },
      "setJudge()": {
        "notice": "There is a 30 seconds window for judge to set himself as judge"
      },
      "setSponsor()": {
        "notice": "There is a 30 seconds window for sponsor to set himself as sponsor"
      },
      "toggleCircuitBreaker()": {
        "notice": "This is a function that if called will toggle the circuit breaker and halt entire contract from progressing. Only admin can call this function."
      }
    },
    "notice": "*  The game is very simple: - You, the staker, will have a goal you intend to achieve.  - You will use the app to 1) input your goal, 2) declare a minimum amount to bet on yourself, and 3) set a duration of how long you will give yourself to achieve this goal.  - You and your sponsor will bet. After duration passes, the judge will arbitrate the outcome (success for failure) - If you achieved your goal during this period of time, you will get your staked Eth back in full and also win the sponsor's bet.  - But if you fail, you will lose your staked bet. "
  }
}